:020000040800F2
:10000000A018002001010008090100080B010008E8
:100010000D0100080F010008110100080000000098
:1000200000000000000000000000000013010008B4
:10003000150100080000000017010008251F000836
:100040001B0100081B0100081B0100081B01000820
:100050001B0100081B0100081B0100081B01000810
:100060001B0100081B0100081B0100081B01000800
:100070001B0100081B0100081B0100081B010008F0
:100080001B0100081B0100081B0100081B010008E0
:10009000953100081B0100081B0100081B01000826
:1000A0001B0100081B0100081B0100081B010008C0
:1000B0001B0100081B0100081B0100081B010008B0
:1000C0001B0100081B0100081B0100081B010008A0
:1000D0001B0100081B0100081B0100081B01000890
:1000E0009D0300081B0100081B010008DFF80CD06D
:1000F00000F040F80048004799380008A018002098
:100100000648804706480047FEE7FEE7FEE7FEE7B1
:10011000FEE7FEE7FEE7FEE7FEE7FEE7AD1F0008AD
:10012000ED00000840EA01039B0703D009E008C97D
:10013000121F08C0042AFAD203E011F8013B00F8AC
:10014000013B521EF9D2704730B50B4601460020E4
:100150002022012409E021FA02F59D4205D303FA89
:1001600002F5491B04FA02F52844151EA2F101020A
:10017000F1DC30BD064C074D06E0E06840F00103BD
:1001800094E8070098471034AC42F6D3FFF7B2FF6B
:10019000EC3A00080C3B000870B58C1810F8015BB5
:1001A00015F0070301D110F8013B2A1106D110F810
:1001B000012B03E010F8016B01F8016B5B1EF9D114
:1001C0002B0705D40023521E0DD401F8013BFAE79A
:1001D00010F8013BCB1A921C03E013F8015B01F805
:1001E000015B521EF9D5A142D8D3002070BD00207A
:1001F000704700207047000010B5002204490548F0
:1002000001F0C8FF0449034801F0BEFF002010BD03
:10021000A81000201C020020C00C002010B50146D0
:10022000034801F0B1FF024801F092FF002010BD29
:100230001C0200207FB54AA000250068CDE90250CD
:100240004FF4FA7000F0AEF80121022003F0A2F999
:10025000102144A003F074FA0121002003F08AFA6F
:100260000A2145A003F06CFA464C0121204600F01B
:1002700097F90028F9D14FF47A7000F093F8022131
:10028000204600F08DF901900121022003F082F94F
:1002900005213DA003F054FA3DA103A8029A02F003
:1002A000AFFF022103A803F04BFA01213AA003F0AB
:1002B00047FA0221204600F073F90090DDE90001C1
:1002C00081423BD01021204600F06AF90099884213
:1002D000029801D0401C00E0401E02900121022043
:1002E00003F058F9052128A003F02AFA28A103A851
:1002F000029A02F085FF022103A803F021FA0121EE
:1003000025A003F01DFA0298401C15D101210220FE
:10031000029503F03FF905211BA003F011FA1CA17F
:1003200003A8029A02F06CFF022103A803F008FA66
:10033000012119A003F004FA009801900121204640
:1003400000F02EF90028B4D140F6B83000F02AF8B9
:100350000121204600F024F90028AAD17FBD000029
:1003600030000000557374617720637A61732070E8
:10037000726163790000000077206D696E757461A9
:100380006368000000080140437A61733A2000006E
:100390002532692F300000006D0000004FF400503E
:1003A00000F014B870B5044600F004F90546601C6E
:1003B00002D004480078044400F0FCF8401BA0423E
:1003C000FAD370BD4C00002070470000044910B5FE
:1003D0000A68024202D00860FFF7F6FF10BD000075
:1003E000140401402DE9F84FDFF890A100220AF132
:1003F000040B144601274FF00F090BF1040E00BF48
:100400000B6807FA04F52B40AB4274D1DFF870C1DA
:100410004E68A6EB0C0866452BD00DDC032E34D0BD
:1004200005DC36B3012E19D0022E2FD11BE0112E80
:1004300016D0122E2AD119E0B8F5881F19D006DC83
:10044000B8F5803F15D0B8F5801F1FD111E0B8F581
:10045000001F0ED0B8F5041F18D10AE0CA6815E0D5
:10046000CA68121D12E0CA6808320FE0CA680C326E
:100470000CE08A682AB1012A4FF0080203D04561D6
:1004800004E0042202E0056100E00022FF2B01D815
:10049000064601E000F104064FEA840501D9A5F102
:1004A0002005D6F800C009FA05F82CEA080C02FA73
:1004B00005F54CEA050CC6F800C04D68ED0057D5AF
:1004C000304DAE6946F00106AE61AD6924F0030619
:1004D00005F0010500952C4D06EB050CDCF80850E5
:1004E000A6074FEA167809FA08F6B543274EB04238
:1004F00002D1002610E03BE0254EB04201D101269A
:100500000AE0244EB04201D1022605E0224EB0425C
:1005100001D1032600E0042606FA08F62E43CCF8A3
:1005200008604D68DAF80060ED03554601D51E43BA
:1005300000E09E432E604D68DBF80060AD035D4631
:1005400001D51E4300E09E432E604D68DEF800603A
:10055000ED02754601D51E4300E09E432E604D68B6
:10056000AD020E4D2E6801D51E4300E09E432E6065
:10057000641C102CFFF444AFBDE8F88F0004014068
:10058000000011100010024000000140000801406E
:10059000000C014000100140001401400C04014017
:1005A0008068084000D0012070470AB1016170479F
:1005B0000904FBE701488068704700004C000020F8
:1005C00090F83D007047000070B504001BD094F80F
:1005D0003D00002520B984F83C50204600F030F959
:1005E000242084F83D002068016821F001010160A9
:1005F00000F092FD404A6168914201D83F4900E015
:100600003F49884201D2012070BD3E492368B0FBBA
:10061000F1F159606368934206D94FF496735943D8
:100620004FF47A73B1FBF3F12368491C19626168D6
:10063000914210D84900401EB0FBF1F2521CC2F3A7
:100640000B02042A01D2042022E0B0FBF1F0401C8E
:10065000C0F30B001CE0A368CBB301EBC10202EBBB
:100660000116421EB2FBF6F2521C42F48042120501
:1006700036D06BB301EBC10202EB0111401EB0FB9F
:10068000F1F0401CC0F30B0040F4804040F4004007
:100690002168C861D4E90701084321680860D4E9EA
:1006A0000310084321688860D4E9050108432168E4
:1006B000C8602068016841F00101016025642020C4
:1006C00084F83D00256384F83E50002070BD00E0B2
:1006D00008E001EB4106421EB2FBF6F2521CC6E7EF
:1006E0000120D5E701EB4101401EB0FBF1F0401CB9
:1006F000C0F30B00CAE70000A086010080841E0042
:1007000000093D0040420F002DE9F84F1F4690467A
:100710008A460446DDF82890FFF74CFF064694F819
:100720003D0020287ED1192301224349204600960E
:1007300000F065FF00287DD194F83C00012879D0B5
:10074000012084F83C0020680168C90703D10168D2
:1007500041F0010101602068016821F4006101603D
:10076000212084F83D00102084F83E0000252564F7
:10077000C4F8248067853148E062608D2085334667
:100780004A465146204600F0C9FE28B1206C84F844
:100790003C5004284CD00DE02068416980690090ED
:1007A00030E032464946204600F09EFF28B1206CDA
:1007B000042838D00320BDE8F88F606A411C6162CC
:1007C000216800780861608D401E6085208D401E84
:1007D00080B2208521684A69D24352070BD450B1B8
:1007E000606A421C626200780861608D401E60850C
:1007F000208D401E208532464946204600F0D8FE16
:100800000028D4D1208D0028CBD154F83D0B0168AD
:1008100041F400710160202004F81E09E577657736
:100820000020C8E706E02068016841F4007101601B
:100830000120C0E70220BEE7020010000000FFFF19
:1008400030B5164D0268122303211548154C85B0AA
:10085000AA420ED1C02203916946CDE90023FFF7D9
:10086000C1FDE06940F40010E061E06900F40010AF
:1008700011E00D4DAA420FD14FF440620391694639
:10088000CDE90023FFF7AEFDE06940F48000E061B0
:10089000E06900F48000049005B030BD00540040D1
:1008A000000C0140001002400058004002488168DE
:1008B00002781144816070474C000020074810B551
:1008C000016841F010010160032000F09DF8002054
:1008D00000F006F800F024F8002010BD00200240CF
:1008E00070B50D4D04464FF47A712878B1FBF0F0E5
:1008F0000A490968B1FBF0F000F0E3FD48B9102C9B
:1009000007D200222146501E00F05EF800206C60E5
:1009100070BD012070BD00004C0000205800002078
:10092000214808B5816941F001018161816901F0C7
:1009300001010091C16941F08051C161C06900F0BD
:1009400080500090032000F05FF8002211466FF005
:100950000B0000F039F8002211466FF00A0000F099
:1009600033F8002211466FF0090000F02DF8002244
:100970001146501F00F028F800221146101F00F009
:1009800023F800221146901E00F01EF800221146A6
:10099000501E00F019F80548416821F0E06141F06F
:1009A0000071416008BD00000010024000000140DD
:1009B00000F01F02012191404009800000F1E02079
:1009C000C0F8001170470000F0B40E4B1B680C46D5
:1009D000C3F30223C3F10705042D00D90425191D13
:1009E000072901D2002300E0DB1E012606FA05F1EB
:1009F000491E214099409E40761E16403143F0BC6E
:100A000000F0E2BF0CED00E0064900F007020868C4
:100A10004FF6FF03184040EA0220034A10430860E3
:100A2000704700000CED00E00000FA0510B50C0660
:100A300005D501F07F0100EB4110283003E000EB09
:100A4000411000F50A7099B232B101228272C18060
:100A5000190C0181002010BD002282728180F9E70B
:100A6000704700EB4112D0F85C04D26B01F058BD26
:100A700000EB4112D0F85C04D2F83C2201F0A5BD95
:100A800010B504460A460B0601F07F0004EB401146
:100A900001D5283101E001F50A710870D0094870CC
:100AA00094F82804012809D0012084F8280420683B
:100AB00002F08CF9002084F8280410BD022010BD3B
:100AC00070B50A460446090602F07F0003D504EB20
:100AD0004011283103E004EB421101F50A710025B1
:100AE0008D700870D009487094F82804012809D046
:100AF000012084F82804206802F016FA84F82854AB
:100B0000002070BD022070BD01F00F0100EB41100C
:100B1000B0F8440280B2704770B504460D460E0628
:100B200001F07F0004EB401101D5283101E001F50F
:100B30000A710870E80948700A61CB7094F82804BB
:100B4000012809D0012084F82804206802F00EF85A
:100B5000002084F8280470BD022070BD70B50C46DA
:100B600001F07F0500EB4511C1E98F230022C1F898
:100B7000442281F8292281F8285201F50A7162067F
:100B8000006802F02BFA002070BD70B50D460446D7
:100B9000090605F07F0003D504EB4011283103E07E
:100BA00004EB451101F50A7101228A700870E80909
:100BB000487094F82804012807D084F82824206875
:100BC00002F0E7F9680602D006E0022070BD04F2E8
:100BD0002C41206802F0A6F9002084F8280470BD9A
:100BE00070B50C4601F07F0500EB4511C1E90F23FC
:100BF00000224A64012281F8292001F8285F620658
:100C0000006802F0EBF9002070BD10B504460068E2
:100C100002F0C6FA000402D5204600F0E5FE206886
:100C200002F0BEFA40050CD5206830F8441F21F4CC
:100C300080610180204600F0EDF80021204600F0A0
:100C4000FEF8206802F0ACFA400405D5206830F8C0
:100C5000441F21F480410180206802F0A1FA800441
:100C600005D5206830F8441F21F400510180206828
:100C700002F096FAC00414D5206830F8401F21F025
:100C800004010180206830F8401F21F00801018034
:100C9000204600F0CCF8206830F8441F21F4805141
:100CA0000180206802F07CFA00051AD5206830F82F
:100CB000401F41F008010180206830F8441F21F4F2
:100CC00000610180206830F8401F41F0040101807C
:100CD000206802F065FAC043C00402D5204600F047
:100CE000E3F8206802F05CFA800508D5206830F847
:100CF000441F21F400710180204600F09CF8206818
:100D000002F04EFAC00505D5206830F8441F21F4E2
:100D10008071018010BD00002DE9F04186B0040013
:100D20004FF0000504D094F82904002620B108E013
:100D3000012006B0BDE8F08184F82864204600F068
:100D40004BF8032084F82904206802F0E4F804F149
:100D50001001142288466846FFF7E4F994E80F0072
:100D600002F032F80021206802F02DFA5FF001074E
:100D700004EB451080F8297000F8285F8581C67063
:100D8000066146616D1C86610F2DF1D35FF0000096
:100D900004EB401181F8296281F82802888681F8E5
:100DA0002B62C1F83862C1F83C62401CC1F8406255
:100DB0000F28EDD3142241466846FFF7B3F994E8B3
:100DC0000F0002F099F884F8246084F829742068F0
:100DD00002F090F80020ACE708B500680B498842A3
:100DE00012D10B48C16941F40001C161C069002200
:100DF00000F40000009011461420FFF7E5FDBDE867
:100E000008401420FFF7D4BD08BD0000005C00407E
:100E10000010024010B504460121D0F85C0401F036
:100E2000BFFCD4F85C04BDE8104001F088BCD0F8E9
:100E30005C0401F0A3BCD0F85C0401F0A5BC10B5C3
:100E4000044690F8280401280BD0012084F82804D7
:100E500084F82410206802F0B8F9002084F82804EF
:100E600010BD022010BDD0F85C2400F22C411046C9
:100E700001F0A9BC10B5044690F82804012810D050
:100E8000012084F8280401462046FFF7E9FD206888
:100E900002F02EF8206802F076F9002084F8280489
:100EA00010BD022010BD000010B50446D0F85C044F
:100EB00001F0D6FCA069002804D00348016841F085
:100EC0000601016010BD000010ED00E02DE9F843BF
:100ED00005460078354CC00754D0E0690026C000B4
:100EE00008D4E06940F08050E061E069012600F03C
:100EF000805000902E480168C90512D401688046D0
:100F000041F480710160FFF755FB074605E000BF23
:100F1000FFF750FBC01B642823D8D8F80000C00599
:100F2000F6D5206A10F4407021D0A98801F44071F0
:100F300081421CD0206A1F49012220F440700A60BF
:100F400000220A602062C00711D0FFF733FB07467A
:100F500041F2883808E000BFFFF72CFBC11B414578
:100F600002D90320BDE8F883206A8007F4D5206AFF
:100F7000696820F44070084320621EB1E06920F0E7
:100F80008050E0612878800705D56068A96820F462
:100F90004040084360602878C00605D56068E9686D
:100FA00020F48000084360600020DBE7001002406E
:100FB00000700040400442422DE9F047DFF83C81D8
:100FC00005460E46D8F8000000F00700B0420CD2EB
:100FD000D8F8001021F007013143C8F80010D8F804
:100FE000000000F00700B04263D12878444C80072D
:100FF00005D56068A96820F0F00008436060287893
:10100000C00745D06868012816D02168022816D08C
:10101000890700294DDA616821F00301014361600D
:10102000FFF7C8FA6968074641F2883001290FD0F6
:101030000229814619D027E021688903E9E789015F
:10104000E7E700BFFFF7B6FAC11B494501D918E031
:1010500081466068C0F381000128F3D118E000BF29
:10106000FFF7A8FAC11B49450BD86068C0F381009F
:101070000228F5D10CE000BFFFF79CFAC11B4945DF
:1010800002D90320BDE8F087606810F00C0FF3D19F
:10109000D8F80010404601F00701B1420BD90168B1
:1010A00021F0070131430160006800F00700B04201
:1010B00001D00120E6E72878400705D56068E96897
:1010C00020F4E060084360602878000706D5606877
:1010D000296920F4605040EAC100606000F02CF8FB
:1010E0006168084AC1F30311515CC84006490860B1
:1010F0000020FFF7F5FB0020C4E7000000200240BD
:10110000001002409C3A0008580000200148006886
:1011100070470000580000200448054900684968ED
:10112000044AC1F30221515CC840704758000020B6
:1011300000100240AC3A000812A185B00FC98DE83A
:101140000F0014A0144A006804905168134801F07D
:101150000C03042B10D0082B0ED1C1F38343C90319
:101160001DF803000AD5516804AAC1F34041515C3F
:101170000A4A5043B0FBF1F005B0704708494843B4
:10118000FAE7000002030405060708090A0B0C0D24
:101190000E0F1010010200000010024000127A0031
:1011A00000093D002DE9F84F04460078B94DC0070D
:1011B00048D06868C0F38100012807D06868C0F390
:1011C0008100022809D16868C00306D52868800319
:1011D00038D5606800286FD034E06068B0F5803F93
:1011E0000BD010B1B0F5A02F11D0286820F48030BA
:1011F0002860286820F4802002E0286840F48030CD
:101200002860606888B1FFF7D5F9064609E02868CC
:1012100040F480202860F0E7FFF7CCF9801B6428B9
:1012200075D828688003F7D50CE0FFF7C3F90646A8
:1012300005E000BFFFF7BEF9801B6428F0D82868DE
:101240008003F7D42078944E80074FF001094FF0C7
:1012500000083BD5686810F00C0F07D06868C0F331
:101260008100022809D16868C00306D42868800775
:1012700014D5206901281FD110E02069B0B1C6F84B
:101280000090FFF797F9074605E000BFFFF792F9D6
:10129000C01B0228C4D828688007F7D52868616970
:1012A00020F0F80040EAC10028600FE0C6F8008096
:1012B000FFF780F9074606E0E9E000BFFFF77AF99B
:1012C000C01B022823D828688007F7D4207800079D
:1012D0002CD57248A169D9B1C0F80090FFF76AF91E
:1012E000074604E0FFF766F9C01B02280FD8686ABA
:1012F0008007F7D56A484FF4FA510068B0FBF1F067
:10130000009000BF0098411E0091FAD20EE080E0EC
:10131000C0F80080FFF74EF9074604E0FFF74AF9EE
:10132000C01B022875D8686A8007F7D42078400768
:1013300060D5E8690027C00008D4E86940F0805013
:10134000E861E869012700F0805000905548016885
:10135000C90513D40168834641F480710160FFF729
:1013600029F9824606E000BFFFF724F9A0EB0A0046
:1013700064284ED8DBF80000C005F5D5E0680128E8
:101380000AD008B1052813D0286A20F0010028628D
:10139000286A20F0040002E0286A40F00100286278
:1013A000E06841F2883B98B1FFF704F982460BE010
:1013B000286A40F004002862EEE700BFFFF7FAF861
:1013C000A0EB0A0159455AD8286A8007F6D50CE0E7
:1013D000FFF7F0F8824605E0FFF7ECF8A0EB0A0112
:1013E00059454CD8286A8007F6D41FB1E86920F027
:1013F0008050E861E06988B36968C1F3810102291E
:1014000045D00228C6F8608004D0FFF7D3F8044620
:1014100038E034E0FFF7CEF8074604E0FFF7CAF8FB
:10142000C01B02282BD828688001F7D4206AB0F5A9
:10143000803F05D16868A16820F4003008436860E7
:10144000D4E908010843696821F47411084368600D
:10145000C6F86090FFF7AEF8044606E015E000BF5E
:10146000FFF7A8F8001B022809D828688001F7D5E3
:101470000BE000BFFFF79EF8001B022802D90320F3
:10148000BDE8F88F28688001F4D40020F8E7012037
:10149000F6E7000000100240000042428004424291
:1014A00058000020007000404FF0E0210428086937
:1014B00003D020F004000861704740F00400FAE710
:1014C000704710B5401EB0F1807F01D3012010BDE0
:1014D0004FF0E02460610F21601700F075FA0020E2
:1014E000A06107202061002010BD10B5FFF7E8FFC4
:1014F00010BD01684A69D24352050CD46FF4806272
:101500004A6104210164002140F8301F2022427307
:10151000017301207047002070470000F8B50446B1
:10152000C06A1E460D461746042807D0012805D07C
:1015300010F5803F02D0206B122804D1206801688A
:1015400041F480710160134600224FF001112046E2
:10155000009600F054F8A0B92069B0F5804F12D081
:101560000620216800EAD51040F0F00008613346FB
:101570003A460E49204600F073F838B1206C042832
:1015800011D00320F8BD05F0FE0000E0E8B22168AC
:101590000861064933463A46891F204600F060F844
:1015A0000028EBD1F8BD0120F8BD000008000100C3
:1015B00070B516460D4604461AE02046FFF799FF1F
:1015C00008B1012070BD681C12D025B1FEF7F2FFF2
:1015D000801BA8420CD954F8400F40F0200044F87A
:1015E000100900202060202161732073032070BD4A
:1015F00020684069C0434007DFD4002070BD2DE95A
:10160000F0471E4690460D460446C1F30747DDF8F5
:10161000209012E0701C10D02EB1FEF7CBFFA0EB93
:101620000900B04209D9002044F8300F202161732D
:10163000A07320730320BDE8F0872068012F0AD033
:10164000806925EA00000004000C06D00021414515
:10165000E0D00020EFE74069F3E70121F7E7000061
:101660002DE9F0479A4691460D46044600264FF074
:101670002008C1F307472AE020684069C0434005BD
:1016800012D42068016841F40071016021686FF490
:101690008060486104202064266384F83D8084F8DB
:1016A0003C600120BDE8F087B9F1FF3F0FD0B9F1F0
:1016B000000F05D0FEF77EFFA0EB0A01494506D9D1
:1016C00044F8306F84F80D8026730320EAE7206821
:1016D000012F07D0D0F8180025EA00000004000C04
:1016E000E0D0C9E74069F7E770B516460D460446F5
:1016F0001AE02046FFF7FDFE08B1012070BD681C0E
:1017000012D025B1FEF756FF801BA8420CD954F821
:10171000400F40F0200044F81009002020602021F4
:1017200061732073032070BD20684069C0430006C8
:10173000DFD4002070BD000010B53E4986B0D1E96D
:101740000001CDE90401002000904FF4FA70FEF78B
:1017500029FE394C02212046FEF722FF0390012189
:10176000022001F017FF082134A001F0E9FF36A1A3
:1017700004A8009A01F044FD0021082001F0FAFFBE
:10178000032104A801F0DCFF00980190022120460B
:10179000FEF706FF03990290884239D010212046B7
:1017A000FEF7FEFE02998842009801D0401C00E03E
:1017B000401E00900121022001F0ECFE08211FA034
:1017C00001F0BEFF20A104A8009A01F019FD00213C
:1017D000082001F0CFFF032104A801F0B1FFDDE9EB
:1017E0000010884212D00846019988424FF001014A
:1017F0004FF0000004D901F0BDFF0D2114A003E05B
:1018000001F0B8FF0C2116A001F09AFF0298039096
:1018100001212046FEF7C4FE0028B5D140F6B830BD
:10182000FEF7C0FD01212046FEF7BAFE0028ABD12D
:1018300006B010BD743A0008000801404C69637A94
:101840006E696B2000000000253269000000000076
:101850004F62726F74207720707261776F000000A2
:101860004F62726F742077206C65776F0000000004
:1018700030B5274885B0816941F0100181618169E7
:1018800001F010010491816941F0200181618169B9
:1018900001F020010491816941F0040181618169B5
:1018A00001F004010491816941F0080181618069BE
:1018B000184D00F008000490002220212846FEF771
:1018C00074FE6814009014480024CDE901046946B0
:1018D0001248FEF787FD1320CDE90004694628462B
:1018E0000294FEF77FFD202000900120CDE9010445
:1018F0000220039069462846FEF774FD0022114637
:101900002820FFF761F82820FFF752F805B030BD16
:1019100000100240000801400000111000100140BA
:101920000B4810B5094901600A49416000214FF494
:1019300080428160C0E9031241618161C16101623D
:10194000FEF742FE002800D0FEE710BD0054004024
:1019500074010020A08601000B4810B50949016000
:101960000A49416000214FF480428160C0E90312BE
:1019700041618161C1610162FEF726FE002800D04D
:10198000FEE710BD00580040C8010020A0860100FD
:1019900010B500220849094800F08DFD08490748A4
:1019A00000F08BFF0749054800F0E6FBBDE810405A
:1019B000024800F0CFBF0000000000201C02002001
:1019C0003C010020340000200907090E002806DA37
:1019D00000F00F0000F1E02080F8141D704700F1C6
:1019E000E02080F8001470472DE9FC5F4FF00008FC
:1019F0000446ADF80480ADF8008048F60F7B4FF048
:101A000002094FF4806692E1BDF8041011F00F074F
:101A10002BD030F82710ADF80010BDF800100904E5
:101A200078D530F8272040F68F710A4020F827201B
:101A300004EB471595F8320205F50A750028206871
:101A400069D0297830F8212052047DD5B0F8503083
:101A500009EBC101194406EB4101415AC1F30901E7
:101A60005FEA010A71D0EA88D0E0BDF80410C90627
:101A70002AD4018801EA0B010180206804F12805BD
:101A8000B0F850202B7809EBC301114406EB41015B
:101A9000405AC0F309006064E16B0844E063002130
:101AA0002046FEF7DEFF94F824000028ABD0A8699A
:101AB0000028A8D194F82400216840F08000A1F803
:101AC0004C0084F8248032E1018804F50A75ADF8F1
:101AD0000010BDF8001009051ED5B0F85030297867
:101AE000062202EBC101194406EB4101405A04F2FF
:101AF0002C41C0F30903EB61AA88206801F054FB74
:101B00002068018840F68F72114001802046FFF75F
:101B1000AAF90CE1A0E055E0BDF800100904D2D507
:101B2000028840F68F710A4002802068B0F8503079
:101B30002978062202EBC101194406EB4101405A03
:101B400083059B0DEB6101E051E063E008D0AA88BA
:101B50006969206801F028FBE969686908446861DF
:101B600000212046FEF784FF2068B0F85010891D40
:101B700006EB4101014428693E280CD9C0F34F12FD
:101B8000C00601D1521E92B24FF6FF7000EA8220C9
:101B900040F4004009E0C0F34F02C00701D0521CDE
:101BA00092B24FF6FF7000EA822008602168088830
:101BB0004BF68F72104080F4405048F28002104380
:101BC0000880B4E0B0F850202B78062101EBC30167
:101BD000114406EB4101415AC1F309015FEA010AD0
:101BE00024D0AA885346696901F0DEFA1EE0B0F8F5
:101BF0005020062303EBC101114406EB4101415A79
:101C0000C1F309015FEA010A04D02A8953466969D0
:101C100001F0CAFA2978206830F8213048F68F722E
:101C2000134048F2C002134320F82130E96901EB68
:101C30000A00E861696901EB0A026A61AB6913B1E4
:101C40002869504504D929782046FEF711FF03E0A2
:101C500029782046FEF782FFBDF80000000666D511
:101C6000206804EB471530F8271001EA0B0120F833
:101C7000271095F8320028350028206812D02978DE
:101C800030F82120B0F8503052061ED509EBC101C2
:101C9000194406EB4101405A83059B0DEB6124D0AA
:101CA000EA881EE0B0F850302A7809EBC2011944E6
:101CB00006EB4101405A83059B0DEB6121D0AA88B8
:101CC0006969206801F087FA1BE0062202EBC10176
:101CD000194406EB4101405A83059B0DEB6104D08A
:101CE0002A896969206801F076FA2978206830F835
:101CF000212048F68F731A404CF280031A4320F8D3
:101D000021202068B0F850202B7809EBC301114442
:101D100006EB4101405AC0F30900E86169690A18FD
:101D20006A612978AB69204663B1FEF759FF2068E4
:101D3000B0F84410ADF8041009043FF565AE00207A
:101D4000BDE8FC9FFEF78DFEF1E7000070B586B0A0
:101D5000654902AA0025D1E9020182E823004FF477
:101D6000FA763046FEF71EFB0121022001F012FC3C
:101D70000A215EA001F0E4FC0121002001F0FAFC40
:101D80000A215DA001F0DCFC5F4C01212046FEF73A
:101D900007FC0028F9D13046FEF704FB022120465B
:101DA000FEF7FEFB01900121022001F0F3FB0B2165
:101DB00056A001F0C5FC049858A100EBD07040106B
:101DC000C0EB00100246059002A801F019FA0121AB
:101DD0000C2001F0CFFC032102A801F0B1FC01218D
:101DE0000F2001F0C7FCDF2001F0A4FC02212046F7
:101DF000FEF7D6FB01990090884263D0102120465F
:101E0000FEF7CEFB00998842049801D0401C00E008
:101E1000401E04900121022001F0BCFB01210020A2
:101E200001F0A8FC0B2139A001F08AFC04983BA129
:101E300000EBD0704010C0EB00100246059002A8E5
:101E400001F0DEF901210C2001F094FC032102A82D
:101E500001F076FC01210F2001F08CFCDF2001F065
:101E600069FC0598B0F5B47F02D010F5B47F27D196
:101E700001210220049501F08DFB0121002001F0D9
:101E800079FC0B2121A001F05BFC049823A100EB5D
:101E9000D0704010C0EB00100246059002A801F07F
:101EA000AFF901210C2001F065FC032102A801F02B
:101EB00047FC01210F2001F05DFCDF2001F03AFC1E
:101EC0000098019001212046FEF76AFB00288DD181
:101ED00040F6B830FEF766FA01212046FEF760FBB7
:101EE000002883D106B070BD743A00085573746140
:101EF00077206B61742000006E616368796C656E99
:101F00006961200000000000000801405779636803
:101F1000796C656E69653A00000000002532690041
:101F20000000000010B5FEF7C1FCBDE81040FFF74F
:101F3000DCBA30B593B001204FF4A02100248DE825
:101F40001300049002250004CDE907500001099018
:101F50006846FFF727F900B1FEE70F20CDE90A0533
:101F60004FF48060CDE90C4001210AA80E94FFF7E0
:101F700023F800B1FEE710200F90800412900FA804
:101F8000FEF7A4FF00B1FEE7FFF7C0F84FF47A7147
:101F9000B0FBF1F0FFF795FA0420FFF785FA002275
:101FA0001146501EFEF710FD13B030BD0D480168FC
:101FB00041F00101016041680B4A11404160016834
:101FC0000A4A11400160016821F4802101604168E2
:101FD00021F4FE0141604FF41F0181600449C003F8
:101FE00008607047001002400000FFF8FFFFF6FE97
:101FF00008ED00E0D0F8180220B10021C0F814125A
:10200000084670470220704770B50546D0F8184260
:1020100000F010FBC4F80C02D5F8180248B1D5F84E
:102020001C12D4F80402CA6804F50371904700201A
:1020300070BD022070BD70B504460025812100F0FE
:102040005FFA0121204600F05BFA8221204600F071
:1020500057FAD4F8180250B1D4F81C0204F50674EB
:1020600040688047206800F07BFD00202060284603
:1020700070BD10B5D0E9864159B194F80002FF282F
:1020800007D08B6894F8012221469847FF2084F8F6
:102090000002002010BD00000A21018000487047A6
:1020A000640000204321018000487047B4000020F4
:1020B00043210180004870477000002043210180C7
:1020C00000487047F80000202DE9F0410446007CEC
:1020D00000254FF4007670B3402302228121204670
:1020E00000F00AFB402302220121204600F004FBFD
:1020F000082303228221204600F0FEFA4FF40770E5
:1021000000F030FDC4F81802F0B10746D4F81C0204
:10211000006880470020C7F81402C7F81802207C26
:10212000D7F8042290B140230121204600F0F7FAAD
:102130002846BDE8F081FFE7334602228121204690
:1021400000F0DAFA3346CEE70125F1E73346EBE754
:1021500010B5D0F8181269B1027C002AD1F8042217
:1021600005D04023012100F0DAFA002010BD4FF421
:102170000073F7E7022010BD02460220002902D0BA
:102180000020C2F81C127047D0F81802C0F80412E0
:1021900000207047D0F81802C0F81022C0F80812CA
:1021A0000020704770B50646D0F8185208780C46E3
:1021B00010F0600121D0202927D1E288AAB10006C1
:1021C000607807D5D6F81C128B6829469847E288B4
:1021D000294617E085F80002A07985F80102E28817
:1021E0002946304600F038F80FE0D6F81C12607827
:1021F00000228B682146984707E060780A2804D1BE
:1022000003490122304600F041F8002070BD000073
:102210006000002010B5D0F81422526890470020CA
:1022200010BD134610B50A46002100F078FA0020D0
:1022300010BD134610B50A46002100F01AFB00201D
:1022400010BD10B50446802100F0EAFA2046BDE832
:102250001040002100F0E4BA10B50323C0F80821B3
:10226000C0F8F431C0F80C2113460A46002100F0F2
:1022700056FA002010BD10B505210023C0F8F41156
:102280001A46194600F04BFA002010BD10B5022383
:102290008261C0F8F431C26113460A46002100F0A1
:1022A000E8FA002010BD10B504210023C0F8F41195
:1022B0001A46194600F0DDFA002010BD10B50A4696
:1022C000024903A000F0D4F8004810BDC00A002065
:1022D00043444320436F6E66696700001220088004
:1022E000004870472000002010B50A46024903A0AC
:1022F00000F0BEF8004810BDC00A0020434443204F
:10230000496E746572666163650000000420088090
:10231000004870471C00002010B50A46024903A07F
:1023200000F0A6F8004810BDC00A002053544D69C3
:1023300063726F656C656374726F6E6963730000BE
:1023400010B50A46024903A000F092F8004810BDFB
:10235000C00A002053544D3332205669727475619F
:102360006C20436F6D506F727400000010B50A4608
:10237000024903A000F07CF8004810BDC00A00200C
:1023800030303030303030303030314100000000FB
:10239000F8B5044648880D46010A08294BD2DFE803
:1023A00001F04A0409174A4A4048D4F81012207C28
:1023B0000A6832E0207C02260028D4F8140205D0F6
:1023C000C16A684688470146467041E0816AF8E77D
:1023D000C0B206282FD2DFE800F003080D12171C48
:1023E000D4F81012207C4A6817E0D4F81012207C30
:1023F0008A6812E0D4F81012207CCA680DE0D4F884
:102400001012207C0A6908E0D4F81012207C4A6976
:1024100003E0D4F81012207C8A696946904701468F
:1024200016E0207C38B9D4F81402416B684688471E
:10243000F5E7207C20B129462046FFF702FFF8BDD2
:10244000D4F81402016B684688470146072048709B
:10245000BDF800000028F2D0EA88002AEFD08242BE
:1024600000D90246ADF800202046FFF70FFFF8BD67
:1024700070B5002300281DD00446002502E06D1C25
:10248000EDB2641C2678002EF9D1022404EB450439
:102490001480CC545B1C0322CA5400245B1C06E04D
:1024A000CA545B1CDAB28C54521CD3B2401C027862
:1024B000002AF5D170BD10B580B1D0F8143213B137
:1024C0000023C0F8143209B1C0F81012012180F8BD
:1024D000FC11027000F0B2F8002010BD022010BD07
:1024E00010B50024D0F82002FEF7EAFA30B1012836
:1024F00001D0022801D0022400E00124204610BDB2
:1025000010B50024D0F82002FEF7BAFA30B1012845
:1025100001D0022801D0022400E00124204610BD91
:102520002DE9F0411746044641B1D4F8140242693E
:102530008AB394F8FC01032842D043E0D4F8F411A4
:10254000002504F11400022933D1D0E902639E4230
:1025500007D9F31A83609AB239462046FFF769FE1D
:1025600012E04068B0FBF3F103FB1101A1B99842FE
:1025700012D3D4F8F81188420ED200221146204618
:10258000FFF757FEC4F8F85100231A4619462046B3
:1025900000F0C5F80DE012E0D4F81402C16829B1CA
:1025A00094F8FC01032801D1204688472046FFF714
:1025B00062FE94F80002012804D184F8005201E080
:1025C000204690470020BDE8F08170B515460446CE
:1025D00041B1D4F8140282693AB394F8FC0103289B
:1025E00024D025E0D4F8F41104F5827003291FD11A
:1025F000D0E902218A420BD9531A836008468342EC
:1026000000D303469AB229462046FFF70AFE0FE0A0
:10261000D4F81402016929B194F8FC01032801D10E
:10262000204688472046FFF73EFE01E020469047BF
:10263000002070BDD0F82002FEF766BA10B5204920
:102640000446C1F85C04C0F820121E480860082047
:102650004860022088600320C86000208861C8614B
:1026600008620846FEF758FB20B14FF4977116A098
:1026700000F0C4FD0022D4F820021823114604F50E
:102680000874FEF7D3F95823002280212068FEF752
:10269000CDF9C023002281212068FEF7C7F94FF44D
:1026A0008873002201212068FEF7C0F94FF480737F
:1026B000002282212068FEF7B9F9002010BD000039
:1026C00060060020005C00402E2E2F5372632F7591
:1026D0007362645F636F6E662E6300000A06D0F853
:1026E000200201F07F0100EB411002D590F82A0092
:1026F000704790F82A02704770B51D4613460024B3
:10270000D0F820022A46FEF707FA30B1012801D09E
:10271000022801D0022400E00124204670BD10B53B
:102720000024D0F82002FEF719FA30B1012801D0B8
:10273000022801D0022400E00124204610BD70B51B
:102740000022044640231146FFF7D6FF40252B46C2
:10275000002280212046C4F81051FFF7CDFF012050
:10276000256284F8FC01D4F8180228B1D4F81402C8
:102770002179426820469047002070BD90F8FD11F5
:1027800080F8FC110020704710B590F8FC11032967
:1027900004D1D0F81412C96901B18847002010BDD6
:1027A00001740020704710B50024D0F82002FEF715
:1027B00046FB30B1012801D0022801D0022400E0FC
:1027C0000124204610BD70B5044600F50270054690
:1027D00000F05FF80120C4F8F401B4F80E02C4F868
:1027E000F80194F8080210F01F010AD001290DD059
:1027F000022910D000F08001204600F011F80020DE
:1028000070BD2946204600F0AAF8F8E72946204680
:1028100000F08CF9F3E72946204600F019F9EEE7BD
:1028200010B50024D0F82002FEF7AFF930B101282E
:1028300001D0022801D0022400E00124204610BD6E
:1028400010B50024D0F82002FEF714FB30B10128A7
:1028500001D0022801D0022400E00124204610BD4E
:1028600090F8FC1180F8FD11042180F8FC11002083
:10287000704710B50024D0F82002FEF7B1F930B14E
:10288000012801D0022801D0022400E001242046C2
:1028900010BD0A7802704A7842708A78CB7802EBD1
:1028A000032242800A794B7902EB032282808A79E3
:1028B000C97902EB0121C18070470246002011B1A5
:1028C000C2F8141270470220704710B5D0F81422D5
:1028D00002241AB11268904700B90024204610BDA6
:1028E00070B50E461A4D897804462970012928D8FA
:1028F00094F8FC01022802D0032822D105E099B106
:102900000320616084F8FC0109E091B160688842AD
:102910000AD0C1B22046FFF77DFC297861602046CD
:10292000FFF7D3FF02280CD02046BDE87040FFF728
:10293000BABC022084F8FC0120466160FFF76AFC03
:10294000F2E731462046BDE87040FFF77ABC000050
:102950005C00002010B5FFF773FF002010BD2DE9CB
:10296000F04100264B78012532460A2B43D2DFE89E
:1029700003F03C584251420805422A27FFF708FD60
:1029800063E004468888C8B9C888B8B9887800F078
:102990007F0794F8FC01032810D084F8FE713946B3
:1029A0002046FFF700FF2046FFF77DFC1FB1022005
:1029B00084F8FC0149E084F8FC5146E020461AE026
:1029C000FFF78EFF41E0CB88012B14D190F8FC314A
:1029D000022B02D0032B0ED104E08260012200F111
:1029E000080114E00122011D11E090F8FC21022AE7
:1029F00004D0032A02D0FFF724FC26E0C560D0F8FB
:102A0000041209B10321C160022200F10C01FFF799
:102A10003DFC1AE004464888012816D1C4F8045247
:102A20000BE0044690F8FC01022801D00328C5D130
:102A30004888012809D1C4F80422D4F81402826815
:102A4000204690472046FFF72EFC3046BDE8F08137
:102A500070B50D460446287800260979C0F3411068
:102A6000012806D06878A0B301281FD003283FD1E1
:102A700007E0D4F8140229468268204690470020D7
:102A800070BD94F8FC01022817D003282CD1688867
:102A900028B921B1802902D02046FFF7C1FED4F821
:102AA0001402294682682046904713E094F8FC01FE
:102AB000022802D0032817D103E0C9B180291BD115
:102AC00016E06888A0B9480604D02046FFF708FD44
:102AD000E5E703E02046FFF7E6FB09E094F8FC0198
:102AE000022807D003280BD029462046FFF7A9FB70
:102AF000304670BD4806FBD02046FFF791FEF7E751
:102B0000080601F07F0004EB001501D5143501E043
:102B100005F582752046FFF7E1FD00B10120286030
:102B2000022229462046FFF7B1FBE1E770B50546D2
:102B300090F8FC010C4603280DD1207901280AD811
:102B4000D5F81402826828469047E08830B92846B4
:102B5000FFF7A9FB02E02846FFF773FB002070BDDA
:102B60007047000000487047400400202DE9F047FE
:102B7000CC780A7848F68F1334B1012C6DD0022C32
:102B800008D0032C13D10BE030F822401C4044F451
:102B900000730AE030F822401C4020F8224006E092
:102BA00030F822401C4044F4C06320F822300C78F6
:102BB00030F8245048F68F72154048F280031D43C8
:102BC000254320F824508D7A48F6BF7904274BF628
:102BD0008F7A48F2C0044CF28006EDB30D7830F8DD
:102BE00025C048F280180CEA020C4CEA080C20F8C8
:102BF00025C0CD88B0F850C025F0010591F80080BF
:102C00000CEBC80C00EB4C0CCCF800540D89B0F860
:102C100050C025F0010591F8008007EBC807674414
:102C200000EB4707C7F800544D78002D0D7830F8B9
:102C300025704FEA47477DD0002F05DA30F8257020
:102C40001740374320F825700D7830F825707F063F
:102C500008D530F8257001E024E01DE01740274337
:102C600020F825700C7830F824501540354320F8B2
:102C700024500C7830F8242002EA09021A4320F884
:102C800024200A7830F8221001EA0A01194320F8BA
:102C900022100020BDE8F08730F822401C4044F4A8
:102CA000806382E74D78F5B18D88B0F8506025F0EB
:102CB00001050F7806EBC70600EB4606C6F8005480
:102CC0000D7830F82560760605D530F82560164079
:102CD000264320F825600A7830F8221001EA09011D
:102CE00081F02001D2E78C88B0F8505024F0010424
:102CF00091F800C007EBCC073D4400EB4505C5F853
:102D00000044B0F850400D78062707EBC5052C4469
:102D100000EB44070C694FF6FF7C07F580673E2CFB
:102D20000CD9C4F34F15E40601D16D1EADB20CEA07
:102D3000852400E01EE044F4004407E0C4F34F059E
:102D4000E40701D06D1CADB20CEA85243C600C7820
:102D500030F824506D0405D530F824501540354323
:102D600020F824500A7830F8221001EA0A0181F490
:102D700040518BE7002F05DA30F8257017403743B4
:102D800020F825700D7830F82560760605D530F8E6
:102D900025601640264320F825600E7830F826502E
:102DA0001540254320F826500C7830F8242002EAFC
:102DB0000A0282F440521A4320F824200A7830F89C
:102DC000221001EA090161E7002070472DE9F04374
:102DD00091F80A8091F801C00A7848F6BF774BF65F
:102DE0008F7948F2800348F2C0054CF2800648F61D
:102DF0008F74B8F1000F2ED0BCF1000F30F822C054
:102E00004FEA4C4C4ED0BCF1000F07DA30F822C02C
:102E10000CEA040C4CEA060C20F822C00A7830F8C0
:102E200022C05FEA4C6C07D530F822C00CEA040CD3
:102E30004CEA050C20F822C00A7830F822502540D0
:102E4000354320F822500C7830F824203A401A43B9
:102E500020F824201BE0BCF1000F0ED030F82260D7
:102E6000760605D530F8226026402E4320F82260F1
:102E70000A7830F8221039400EE030F822506D0404
:102E800005D530F822502540354320F822500A78E5
:102E900030F8221001EA0901194320F8221000201D
:102EA000BDE8F083BCF1000F07DA30F822C00CEA6D
:102EB000040C4CEA060C20F822C00A7830F8226094
:102EC000760605D530F8226026402E4320F8226091
:102ED0000E7830F8262022402A4320F826200C784D
:102EE00030F8242002EA09021A4320F82420BFE720
:102EF000002070470020704700B50121A0F8401065
:102F00000021A0F84010A0F84410A0F8501000F0E4
:102F10003AF9002000BD30F8401F21F43D41018006
:102F2000002070470020704730B54D780A78002D9A
:102F300048F68F7430F8225048F2800312D06D06A4
:102F400007D530F82250254048F2C004254320F828
:102F500022500A7830F8221048F6BF74214081F0E0
:102F6000300111E06D0407D530F8225025404CF2B5
:102F70008004254320F822500A7830F822104BF6BE
:102F80008F74214081F44051194320F82210002011
:102F900030BD10B50A7848F2800352B14978002953
:102FA00030F8221010D048F6BF74214081F0100193
:102FB0000FE001884BF6BF72114081F4805181F01F
:102FC00010011943018007E04BF68F74214081F412
:102FD0008051194320F82210002010BD2DE9F04146
:102FE0000D460646896995F801C00023AA7A022792
:102FF00028690C4648F28008BCF1010F05D08142D7
:1030000052D90446081AA8614FE0814203D9044608
:10301000081AA86100E0AB617AB1287836F8201070
:103020004906B6F8501007EBC000084406EB400014
:10303000C0F8004412D52A8911E0A3B2AA8830460C
:10304000696900F0C8F8B6F85000297807EBC101AB
:10305000084406EB4000C0F800441CE0EA88A3B234
:103060003046696900F0B7F8687848F68F7110B19A
:10307000012807D00FE0287836F820200A4048F2CF
:10308000C00105E0287836F820200A404CF2800183
:103090000A4326F82020297836F8210048F6BF7226
:1030A000104080F0300067E0AB6106234FF6FF7000
:1030B0001AB1BCF1000F1BD056E0B6F850102A78B8
:1030C0003E2C03EBC202114406EB410202F5806282
:1030D00039D9C4F34F11E30632D000BF00EA812092
:1030E00040F4004002E000BF00EA812010603BE0B5
:1030F000B6F850102A783E2C07EBC202114406EBBA
:10310000410202F580620BD9C4F34F115FEAC46C2F
:1031100001D1491E89B200EA812141F4004108E051
:10312000C4F34F015FEAC47C01D0491C89B200EAB4
:103130008121116069780029BFD001290AD013E0EC
:10314000491E89B2CAE7C4F34F01E307CCD0491C3A
:1031500089B2C9E7B6F85000297807EBC1010844E5
:1031600006EB4000C0F80044297836F821004BF601
:103170008F72104080F4405040EA080026F8210089
:103180000020BDE8F08130F8401F41F43F4101804C
:10319000002070470148FDF738BD000060060020A0
:1031A000B0F84400704700005B1C00EB42005B0875
:1031B00000F5806006D000BF30F8042B21F8022B08
:1031C0005B1EF9D170470020704711B98021A0F82B
:1031D0004C100020704710B55B1C00EB42005B08F0
:1031E00000F5806009D011F8012B5B1E11F8014B2E
:1031F00042EA042220F8042BF5D110BDFEE70000BE
:103200000FB4084B10B504A902AA039800F01CF8EB
:10321000044602A9002000F0B8F9204610BC5DF871
:1032200014FB00008B35000802E008C8121F08C11B
:10323000002AFAD170477047002001E001C1121F37
:10324000002AFBD1704700002DE9FF4F8BB0884664
:103250000546002606E025280BD0DDE90D12904733
:103260006D1C761C28780028F5D10FB03046BDE8DB
:10327000F08F0024A146A2460122AE4900E004439B
:1032800015F8013F203B02FA03F00842F7D12878F5
:103290002A2810D06FF02F022878A0F130010929D8
:1032A00015D809EB890102EB410144F0020400EB5F
:1032B00001096D1CF0E758F8041B5FEA010903D50A
:1032C00044F40054C9F1000944F002046D1C28784C
:1032D0002E2817D115F8010F44F004042A280ED027
:1032E0006FF02F022878A0F1300109290AD80AEBE3
:1032F0008A0102EB410100EB010A6D1CF2E758F86C
:1033000004AB6D1C28786C280FD006DC4C2817D035
:1033100068280DD06A2814D104E0742810D07A28C7
:103320000FD10DE044F400140AE044F4801401E0ED
:1033300044F440146978814202D104F580146D1C74
:103340006D1C2878692865D006DC00288DD063289C
:1033500027D0642806D15DE06E2808D073282AD0D3
:10336000752877D0DDE90D129047761CE0E0C4F3B4
:103370000250022809D003280DD0D8F800100428E4
:103380000DD00E6008F10408D2E0D8F80010F21752
:10339000C1E90062F6E7D8F800100E80F2E70E707F
:1033A000F0E718F8041B8DF8001000208DF80100DC
:1033B000EB46012003E058F804BB4FF0FF306107F3
:1033C0004FF0000701D40AE07F1C57450DDA874211
:1033D000FADB1BF807100029F6D106E07F1C8742B4
:1033E000FCDB1BF807100029F8D1DDE90D23A9EB60
:1033F00007008146214600F0B1F83044C61904E0C8
:10340000DDE90D121BF8010B90477F1EF8D2214613
:10341000484688E058F8040BC4F302514FF00A0BF9
:10342000032900D100B2042900D140B2002802DAF9
:1034300040422D2102E0210505D52B218DF82410D5
:10344000012104E006E0E10710D02021F6E708AFF3
:10345000089113E058F8040BC4F302514FF00A0B23
:10346000032900D180B2042900D1C0B20021EEE7C7
:103470005946FCF769FE303107F8011D0028F7D1E5
:10348000ADEB070000F1200B600702D524F4803477
:1034900001E04FF0010ADA4502DDAAEB0B0000E083
:1034A0000020824600EB0B0108980144A9EB0100C3
:1034B0000A90E00306D4DDE90D2321460A9800F0C6
:1034C0004DF806444FF0000908E009A911F8090079
:1034D000DDE90D12904709F10109761C089989452B
:1034E000F3DBE0030CD5DDE90D2321460A9800F05B
:1034F00035F8064404E0DDE90D1230209047761CD3
:10350000BAF10001AAF1010AF5DC05E0DDE90D12CE
:1035100017F8010B9047761CBBF10001ABF1010BD2
:10352000F4DC0A982146DDE90D2300F005F8064495
:103530006D1C97E6092801002DE9F041044600259D
:103540001E461746880404D405E039462020B047BB
:103550006D1C641EF9D52846BDE8F0812DE9F041C7
:10356000044600251E469046C80301D5302700E0DA
:103570002027880404D505E041463846B0476D1C35
:10358000641EF9D52846BDE8F0810A68531C0B601B
:103590001070704738B500228DF800202B4A147A3D
:1035A000537A49B301294FD109284DD2DFE800F001
:1035B0004C050E080B103D1E210044F004002CE0C9
:1035C00044F0020029E044F0010026E0012000E080
:1035D00002208DF800006946002000F0E3F8002882
:1035E00003D00220FCF7DEFE012038BD43F00200CC
:1035F0001FE043F001001CE0092825D2DFE800F0BD
:10360000240524080B241512170024F0040004E0FC
:1036100024F0020001E024F001001072C0B240F07A
:1036200008000AE023F0020003E0537202E023F0F6
:1036300001005072507A40F004008DF80000694695
:10364000002000F0AFF838BD002038BD90140020F5
:103650002DE9FC4100248DF80440344C344D002603
:1036600020604800A071227163710820E07134204D
:10367000287068703020A87032270097A179032342
:103680002B4A2068FDF740F8F8B902E00120FCF76A
:1036900089FE2068FCF794FF2028F7D1022E17D06E
:1036A0005FF00400FCF77EFE761CF6B2032EE4D336
:1036B0002C20287068702820A8700097A179032317
:1036C0001B4A2068FDF720F838B10020BDE8FC81D6
:1036D0000120E7E70120FCF765FE2068FCF770FF9A
:1036E0002028F7D19DF8040040F002008DF8040076
:1036F0002179012903D940F008008DF8040001A9BF
:10370000002000F04FF801210846FFF743FF012198
:103710000720FFF73FFF01210220FFF73BFF0121B8
:103720000520FFF737FF0120D0E7000090140020AC
:103730004400002001B56946012000F033F808BDBF
:1037400070B50E46054600240AE0285D0A280BD015
:103750002919012000F026F8002804D0641CE4B2E6
:10376000B442F2D3012070BD0221002000F002F823
:10377000F2E70000094A08B512798A4201D8521EC0
:10378000D1B2074A515C084440F080008DF8000037
:103790006946002000F006F808BD000090140020E3
:1037A000983A0008F8B51B4C0B78E27903F0F00367
:1037B000154642EA000643F0040346EA0302164BAC
:1037C0001A705A700A7802F0F00202432A439A7083
:1037D0000A78120142F004021643DE701E71097865
:1037E0000D4A40EA01110D435D7132200090A1792C
:1037F00006232068FCF788FF20B10020F8BD00BF39
:10380000FCF7D0FD2068FCF7DBFE20284FF001001C
:10381000F6D1F8BD901400204400002010B502231A
:10382000102227211148FFF713FF01210220FFF783
:10383000B1FE10210EA0FFF783FF01210020FFF74A
:1038400099FF0D210FA0FFF77BFF124C01212046AD
:10385000FCF7A6FE0028F9D140F6C410FCF7A2FD43
:103860000121BDE810400220FFF794BE7401002042
:1038700050726F6A656B74206E612053544D333201
:103880000000000044616D69616E20447A69616CDA
:103890006F0000000008014088B014226F4968469C
:1038A000FCF740FC0024FDF709F8FEF742FBFDF7AA
:1038B000DFFFFEF735F8FEF74FF8FEF769F8FFF780
:1038C000ADFF01210220FFF765FE654D6E46012127
:1038D0000220FFF75FFE032162A0FFF731FF0721FF
:1038E0000098FFF72DFF032160A0FFF729FF0121BA
:1038F0000420FFF73FFF06EB840007214068FFF735
:103900001FFF02212846FCF74BFE079002212846A4
:10391000FCF746FE07990590884243D010212846BF
:10392000FCF73EFE0599884201D0641C00E0641E4D
:10393000E4B2092C34D2DFE804F005331B334B33F7
:103940006233790001210220FFF724FE032145A004
:10395000FFF7F6FE07210098FFF7F2FE032143A0D0
:10396000FFF7EEFE01210420FFF704FF019844E079
:1039700001210220FFF70EFE03213AA0FFF7E0FE2F
:1039800007210198FFF7DCFE032138A0FFF7D8FEDE
:1039900001210320FFF7EEFE06210298FFF7D0FE7B
:1039A0000598079001212846FCF7FAFD0028ADD1C3
:1039B000022C4AD0042C4BD0062C4CD0082CA5D17C
:1039C000FFF72CFF4FF4FA70FCF7ECFC00247EE7C5
:1039D00001210220FFF7DEFD032122A0FFF7B0FE48
:1039E00006210298FFF7ACFE032120A0FFF7A8FEF6
:1039F00001210320FFF7BEFE03980721CEE7012136
:103A00000220FFF7C7FD032116A0FFF799FE07214B
:103A10000398FFF795FE032114A0FFF791FE012103
:103A20000846FFF7A7FE0A210498B7E70121022004
:103A3000FFF7B0FD03210BA0FFF782FE0A210498D7
:103A4000FFF77EFE032109A0A8E7FEF77FF9BDE797
:103A5000FCF7F0FBBAE7FDF76FFEB7E7843A000822
:103A6000000801402D2D200000000000202D2D0019
:103A700000000000300000000000000030000000E6
:103A800000000000B43A0008C03A0008CC3A000830
:103A9000D43A0008E03A0008004014540000000046
:103AA00000000000010203040607080900000000EE
:103AB00001020304204D454E553A2000000000004D
:103AC000506F7A79636A61000000000020437A61D8
:103AD000732000004C69637A6E696B00000000007F
:103AE000496E666F726D61636A6500000C3B000889
:103AF000000000207401000098010008D03B00087D
:103B0000740100202C1700003832000813DD221445
:103B1000080D231B0819041A41041A6D041ABD1458
:103B20001AE90417040309041201140202021640E0
:103B30008304405726020102030113F9011B08F315
:103B4000041AEF04131D028208191B11821084A2AB
:103B50004A04130A0632022A40201C090243471174
:103B60001CC032091F1B01020B130524161001058E
:103B70002401100901042402020524061701070587
:103B80008203081C1009047D320A1D070501024347
:103B90002C070581070938442A40072A8107112B81
:103BA0000907440A2204440A16FF4413C9201B08CB
:103BB000370413A52142081A730C13F51F1B0809BB
:103BC00008C12AB12419041ABD041A99040000007E
:04000005080000ED02
:00000001FF
